:0515AE0012156480FE2F
:0300000002154A9C
:10154A00787FE4F6D8FD9000007F007E20E4F0A3C7
:0A155A00DFFCDEFA7581210215AEF8
:10151400EF4E60167D607C09ED1D70011C144C704B
:0A152400F7EF1F70011E144E70EA6D
:01152E00229A
:09158E00EF1F70011E144E70F7EE
:011597002231
:10000300E4FCFD7B207ACC7904F81206959000C3BA
:0F0013001207B29000C3E0C313FEA3E013FF2255
:1014EE00E50E6599600885990EE4F50D80053009C5
:1014FE0002050DC3E50D94E9748094804007C2AFD8
:06150E0075C76080FB229E
:100F0300EF14601614602C14604D14606C1470039D
:100F1300020F9724056003020FBA90FE02E0547E8D
:100F23004480F0E030E0F390FE00E054FCF090FEEB
:100F330003807A90FE04E0547E4480F0E030E0F3D6
:100F430090FE00E054FC4403F090FE02E4F090FEB7
:100F530008F090FE03F02290FE08E0547E4480F0F7
:100F6300E030E0F390FE00E054FC4402F090FE0415
:100F7300E4F090FE02F0A3F02290FE03E0543E441E
:100F830080F0E030E0F390FE00E054FC4401F09088
:100F9300FE02801990FE03E0543E44C0F0E030E0CE
:100FA300F390FE00E054FC4401F090FE02E4F09064
:080FB300FE08F090FE04F0229C
:0C158200EF90FE01700304F022EFF02255
:1015640043BA80D209E4F50EF50D121467D2AF2206
:0B0E48009000A9EBF0A3EAF0A3E9F092
:100E5300E4FFFE9000AFF0A3F0A3F0A3F09000A98D
:100E6300E0FBA3E0FAA3E0F91205EF7003020EFE24
:100E73009000ACE0FBA3E0FAA3E0F98F828E83122B
:100E83000608FD9000A9E0FBA3E0FAA3E0F9120530
:100E9300EFB505070FBF00010E801E1205EFFD9091
:100EA30000ACE0FBA3E0FAA3E0F91205EFB50506F9
:100EB3007E007F018003E4FEFF9000B2E004F07047
:100EC300069000B1E004F09000AAE475F001120668
:100ED300699000ACE0FBA3E0FAA3E0F98F828E8374
:100EE300120608FD3395E04D6003020E60C39000C7
:0F0EF300B2E09FFF9000B1E09EFE227EFF7FFFE6
:010F020022CC
:100B0800E49000C7F09000C9F09000C8F09000C8C9
:100B1800E0C3940A748094804003020BEAE07E00EC
:100B28002DF582EE3CF583120608FF3395E0FEC3EF
:100B3800EF9430EE648094804052D3EF9437EE64A3
:100B480080948050479000C9E004F0E06401701977
:100B58009000C8E07E002DF582EE3CF58312060871
:100B680024D0C454F09000C7F09000C9E06402702B
:100B78001B9000C8E07E002DF582EE3CF58312063E
:100B88000824D0FF9000C7E04FFFF0229000C8E093
:100B98007E002DF582EE3CF583120608FF3395E0C2
:100BA800FEC3EF9438EE648094804011D3EF9439FB
:100BB800EE6480948050069000C9E004F09000C86C
:100BC800E07E002DF582EE3CF583120608FF642CCA
:100BD8006010EF3395E04F60099000C8E004F00220
:070BE8000B159000C7E0FFB0
:010BEF0022E3
:080BF0009000B9ECF0A3EDF058
:100BF800E4A3F0A3F0A3F09000BDE0FFC394147445
:100C08008094804003020CB69000BAE02FFF900059
:100C1800B9E034008F82F583120608FF3395E0FEB1
:100C2800C3EF9430EE648094804051D3EF9439EE52
:100C38006480948050469000BBE0FEA3E0FF7C00F7
:100C48007D0A1206579000BBEEF0A3EFF0A3E0FF79
:100C58009000BAE02FFF9000B9E034008F82F5834E
:100C6800120608FF3395E0FEEF24D0FFEE34FFFEB6
:100C78009000BCE02FF09000BBE03EF09000BDE09B
:100C8800FF9000BAE02FFF9000B9E034008F82F5A2
:100C980083120608FF642C6015EF642E6010EF3392
:100CA80095E04F60099000BDE004F0020BFF900052
:060CB800BBE0FEA3E0FF1B
:010CBE002213
:1009DB00900097EBF0A3EAF0A3E9F0A3ECF0A3ED02
:0109EB00F01B
:1009EC00E49000A3F0A3F0A3F0A3F0A3F0A3F09085
:1009FC0000A1F0A3F090009AE0FEA3E0FF9000A10C
:100A0C00E0FCA3E0FDC39FEC9E4003020AAB900008
:100A1C009CE0FBA3E0FAA3E0F99000A3E0FEA3E0C6
:100A2C00F5828E83120608FF900097E0FBA3E0FA94
:100A3C00A3E0F98D828C83120608B507339000A4CD
:100A4C00E004F070069000A3E004F090009FE0FE3C
:100A5C00A3E0FF9000A3E0B50631A3E0B5072C900E
:100A6C0000A1E0FFA3E09000A7CFF0A3EFF0802F50
:100A7C00E49000A3F0A3F09000A2E02401FE90000B
:100A8C00A1E034009000A5F0A3CEF09000A2E00409
:100A9C00F06003020A019000A1E004F0020A019048
:100AAC0000A7E0FEA3E0FF9000A5E0FCA3E0FDD3CF
:100ABC009FEC9E50449000A1ECF0A3EDF09000A7A9
:100ACC00E0FEA3E0FF9000A1E0FCA3E0FDC39FECDF
:100ADC009E5023900097E0FBA3E0FAA3E0F98D82EF
:100AEC008C83E41206359000A2E004F070CF9000E5
:0B0AFC00A1E004F080C77F01227F0012
:010B070022CB
:0815980001020408102040804C
:100CBF00EF64887003020D84EF54F0F50FEF540FBB
:100CCF00FE90159893F510EED3940774809480409E
:100CDF0003020D84ED604DE50F24F0602124F060D8
:100CEF002224F0602324F0602424F0602524F06097
:100CFF002624F060272470707C90FE10802190FED7
:100D0F0011801C90FE12801790FE13801290FE141B
:100D1F00800D90FE15800890FE16800390FE17E060
:100D2F004510F022E50F24F0602124F0602224F01A
:100D3F00602324F0602424F0602524F0602624F042
:100D4F0060272470702F90FE10802190FE11801C60
:100D5F0090FE12801790FE13801290FE14800D905B
:100D6F00FE15800890FE16800390FE17E0FFE51039
:050D7F00F4FEEF5EF040
:010D8400224C
:100FBB00EB604BEF24F0602124F0602224F06023DF
:100FCB0024F0602424F0602524F0602624F06027B0
:100FDB002470707990FE10802190FE11801C90FE81
:100FEB0012801790FE13801290FE14800D90FE1548
:100FFB00800890FE16800390FE17E04DF022EF2440
:10100B00F0602124F0602224F0602324F06024247B
:10101B00F0602524F0602624F060272470702E9059
:10102B00FE10802190FE11801C90FE12801790FE06
:10103B0013801290FE14800D90FE15800890FE1602
:0E104B00800390FE17E0FFEDF4FEEF5EF02252
:10038B00EF648870030205EEEF54F0F50FEF540F96
:10039B00FE90159893F510EED394077480948040DB
:1003AB00030205EEE50F24F0602424F0602524F011
:1003BB00602624F0602724F0602824F0602924F0C4
:1003CB00602A247060030205EEE4F50F8021750F9F
:1003DB0001801C750F028017750F038012750F04B7
:1003EB00800D750F058008750F068003750F07EDDF
:1003FB00FFD394037480948040030205EEE50F70E5
:10040B0037EF7007E510F452935294ED64017009C5
:10041B00E5104293E510F45294EDFF7E00640270F8
:10042B0008E5104293E5104294EF64034E7009E522
:10043B0010F45293E5104294E50F64017037EDFF11
:10044B007E007007E510F452915292EF64014E70EA
:10045B0009E5104291E510F45292ED64027008E543
:10046B00104291E5104292ED64037009E510F452CD
:10047B0091E5104292E50F64027037EDFF7E00703C
:10048B0007E510F452955296EF64014E7009E51092
:10049B004295E510F45296ED64027008E510429512
:1004AB00E5104296ED64037009E510F45295E510E2
:1004BB004296E50F64037037EDFF7E007007E51081
:1004CB00F452B152B2EF64014E7009E51042B1E53E
:1004DB0010F452B2ED64027008E51042B1E510421F
:1004EB00B2ED64037009E510F452B1E51042B2E5C8
:1004FB000F64047037EDFF7E007007E510F452B304
:10050B0052B4EF64014E7009E51042B3E510F4529A
:10051B00B4ED64027008E51042B3E51042B4ED642B
:10052B00037009E510F452B3E51042B4E50F64050E
:10053B007037EDFF7E007007E510F452C952CAEF19
:10054B0064014E7009E51042C9E510F452CAED641E
:10055B00027008E51042C9E51042CAED6403700948
:10056B00E510F452C9E51042CAE50F64067037ED89
:10057B00FF7E007007E510F452CB52CCEF64014EB6
:10058B007009E51042CBE510F452CCED6402700813
:10059B00E51042CBE51042CCED64037009E510F495
:1005AB0052CBE51042CCE50F64077037EDFF7E00B0
:1005BB007007E510F452E152E2EF64014E7009E569
:1005CB001042E1E510F452E2ED64027008E51042CE
:1005DB00E1E51042E2ED64037009E510F452E1E548
:0305EB001042E2D9
:0105EE0022EA
:10084700EBD394037480948040030209DAEF702C91
:10085700EB7006EDF452935294EB64017007ED428E
:1008670093EDF45294EB64027006ED4293ED4294DB
:10087700EB64037007EDF45293ED4294EF6401705B
:100887002CEB7006EDF452915292EB64017007ED78
:100897004291EDF45292EB64027006ED4291ED4203
:1008A70092EB64037007EDF45291ED4292EF64020C
:1008B700702CEB7006EDF452955296EB64017007BD
:1008C700ED4295EDF45296EB64027006ED4295ED1C
:1008D7004296EB64037007EDF45295ED4296EF6490
:1008E70003702CEB7006EDF452B152B2EB64017059
:1008F70007ED42B1EDF452B2EB64027006ED42B17E
:10090700ED42B2EB64037007EDF452B1ED42B2EF82
:100917006404702CEB7006EDF452B352B4EB64012F
:100927007007ED42B3EDF452B4EB64027006ED428A
:10093700B3ED42B4EB64037007EDF452B3ED42B488
:10094700EF6405702CEB7006EDF452C952CAEB64E4
:10095700017007ED42C9EDF452CAEB64027006ED6F
:1009670042C9ED42CAEB64037007EDF452C9ED4288
:10097700CAEF6406702CEB7006EDF452CB52CCEB49
:1009870064017007ED42CBEDF452CCEB64027006C4
:10099700ED42CBED42CCEB64037007EDF452CBEDA7
:1009A70042CCEF6407702CEB7006EDF452E152E293
:1009B700EB64017007ED42E1EDF452E2EB64027083
:1009C70006ED42E1ED42E2EB64037007EDF452E11C
:0409D700ED42E222E9
:1013F100EFB4080050389013FEF828287302141631
:1014010002141902141C02141F02142202142502D0
:10141100142802142B8D80228D90228DA0228DB054
:0F142100228DC0228DC8228DE822AF058FF822C0
:1013B100EFB4080050379013BEF82828730213D6F3
:1013C1000213D90213DC0213DF0213E20213E50256
:1013D10013E80213EBAF8022AF9022AFA022AFB08F
:1013E10022AFC022AFC822AFE822AFF8227FFF228E
:100D8500EF64887003020E47EF54F0F50FEF540F30
:100D9500FE90159893F510EED394077480948040D7
:100DA50003020E47ED604AE50F24F0602124F06050
:100DB5002224F0602324F0602424F0602524F060D0
:100DC5002624F0602724707079E510428022E51012
:100DD500429022E51042A022E51042B022E51042E1
:100DE500C022E51042C822E51042E822E51042F88B
:100DF50022E50F24F0602224F0602424F0602624EC
:100E0500F0602824F0602A24F0602C24F0602E2461
:100E150070702FE510F4528022E510F4529022E50F
:100E250010F452A022E510F452B022E510F452C09D
:100E350022E510F452C822E510F452E822E510F438
:020E450052F861
:010E47002288
:1010F300EF64887002FF22EF54F0F50FEF540FFEF8
:1011030090159893F510EED3940774809480400360
:101113007F0122E50F24F0602124F0602224F06097
:101123002324F0602424F0602524F0602624F0605A
:1011330027247070268580118021859011801C855D
:10114300A011801785B011801285C011800D85C84C
:1011530011800885E811800385F811E511551060A9
:06116300037F01227F0062
:011169002263
:10116A00EF64886062EF54F0F50FEF540FFE9015AC
:10117A009893F510EED39407748094805049E50F44
:10118A0024F0602124F0602224F0602324F06024FB
:10119A0024F0602524F0602624F06027247070274C
:1011AA00E510628022E510629022E51062A022E535
:1011BA001062B022E51062C022E51062C822E51072
:0711CA0062E822E51062F863
:0111D10022FB
:10136C00EFB40800503E901379F8282873021391BB
:10137C0002139502139902139D0213A10213A502E5
:10138C0013A90213ADED628022ED629022ED62A0F2
:10139C0022ED62B022ED62C022ED62C822ED62E85D
:0513AC0022ED62F822B1
:10105900A907EB6048E9B4080040030210F29010B8
:101069006EF828287302108602108A02108E021068
:101079009202109602109A02109E0210A2ED42806E
:1010890022ED429022ED42A022ED42B022ED42C073
:1010990022ED42C822ED42E822ED42F822E9B408E5
:1010A9000050469010B3F82828730210CB0210D0D4
:1010B9000210D50210DA0210DF0210E40210E90270
:1010C90010EEEDF4528022EDF4529022EDF452A08C
:1010D90022EDF452B022EDF452C022EDF452C822AE
:0A10E900EDF452E822EDF452F82273
:10123800EFB409005045901245F82828730212604F
:1012480002126402126802126C0212700212740214
:10125800127802127C021280AE80801FAE90801B32
:10126800AEA08017AEB08013AEC0800FAEC8800BA2
:10127800AEE88007AEF880037F0122EE5D60037F51
:0412880001227F00C0
:01128C00223F
:0815A0003031363716174344C1
:1014670075985053873F538EDEE4FD7F0112128D2E
:101477009000BF1207BE0001C2007F0112149743FC
:101487008E4053890FC2ABC28FD28EC20AD2AC2212
:10128D009000BEEDF0EF1470449000BEE0FF54C02E
:10129D00FEE5A2543F4EF5A2EFC41313540325E00F
:1012AD0024A0F582E43415F583E493FFE4FD1203E5
:1012BD008B9000BEE0C41313540325E024A1F582E6
:0E12CD00E43415F583E493FF7D0312038B22B6
:051497009000BEEFF023
:10149C00A3E0F8A3E0F9A3E0FAA3E0FB7F807E8D44
:1014AC007D5B7C00120720C3E49FFFE49EFE90004E
:0A14BC00BEE01470058F8BEEF58D75
:0114C6002203
:0E157400EF147009AF058F99D20A200AFD22EC
:10152F00EF147016EB6006D29BD29B8004C29BC255
:0B153F009BAF058F99D20A200AFD2205
:101430009000CAEBF0A3EAF0A3E9F0AE079000CA6F
:10144000E0FBA3E0FAA3E0F91205EF6019AF069004
:1014500000CAA3E475F00112067FA9F0FA1205EFA5
:07146000FD12157480D72274
:0E11D200900000EFF0A3EBF0A3EAF0A3E9F029
:1011E00090006C7401F0A37400F0A37404F09000FC
:1011F00001E0F9A3E0FAA3E09000B3C9F0A3EAF09C
:10120000A3E9F090006CE0F9A3E0FAA3E09000B647
:10121000C9F0A3EAF0A3E9F07B017A00792C12125D
:10122000DB90006CE4F0A3F0A3F0900000E0FF7B03
:08123000017A00792C02143050
:0615A80053B7EFC2BC22A4
:03002300021325A0
:10132500C0E0C0F0C083C082C0D075D000C000C08E
:1013350001C002C003C004C005C006C0073098053F
:10134500C2981214EE309904C299C20AD007D00689
:10135500D005D004D003D002D001D000D0D0D082A7
:07136500D083D0F0D0E0328C
:1005EF00BB010689828A83E0225002E722BBFE020A
:0905FF00E32289828A83E493223D
:10060800BB010CE58229F582E5833AF583E02250A7
:1006180006E92582F8E622BBFE06E92582F8E222F1
:0D062800E58229F582E5833AF583E493220B
:10063500F8BB010DE58229F582E5833AF583E8F0FB
:10064500225006E92582C8F622BBFE05E92582C8A7
:02065500F2228F
:10065700EF8DF0A4A8F0CF8CF0A428CE8DF0A42EB7
:02066700FE2271
:10066900C5F0F8A3E028F0C5F0F8E582158270021C
:060679001583E038F022B9
:10067F00A3F8E0C5F025F0F0E5821582700215832E
:06068F00E0C838F0E8228B
:10069500E88FF0A4CC8BF0A42CFCE98EF0A42CFC04
:1006A5008AF0EDA42CFCEA8EF0A4CDA8F08BF0A482
:1006B5002DCC3825F0FDE98FF0A42CCD35F0FCEBE1
:1006C5008EF0A4FEA9F0EB8FF0A4CFC5F02ECD39A6
:0F06D500FEE43CFCEAA42DCE35F0FDE43CFC2213
:1006E40075F008758200EF2FFFEE33FECD33CDCCCD
:1006F40033CCC58233C5829BED9AEC99E582984050
:100704000CF582EE9BFEED9AFDEC99FC0FD5F0D62C
:10071400E4CEFBE4CDFAE4CCF9A88222B800C1B956
:100724000059BA002DEC8BF084CFCECDFCE5F0CB94
:10073400F97818EF2FFFEE33FEED33FDEC33FCEBCD
:1007440033FB10D703994004EB99FB0FD8E5E4F988
:10075400FA227818EF2FFFEE33FEED33FDEC33FC75
:10076400C933C910D7059BE99A4007EC9BFCE99A69
:10077400F90FD8E0E4C9FAE4CCFB2275F010EF2FAE
:10078400FFEE33FEED33FDCC33CCC833C810D707AE
:100794009BEC9AE899400AED9BFDEC9AFCE899F8E9
:0E07A4000FD5F0DAE4CDFBE4CCFAE4C8F9227C
:0C07B200ECF0A3EDF0A3EEF0A3EFF022BA
:1007BE00A8828583F0D083D0821207D51207D51276
:1007CE0007D51207D5E473E493A3C583C5F0C5839B
:1007DE00C8C582C8F0A3C583C5F0C583C8C582C885
:0107EE0022E8
:1012DB009000B3E0FFA3E0FEA3E0CF900072F0A379
:1012EB00EEF0A3EFF09000B6E0CBF0A3E0CAF0A3D2
:1012FB00E0C9F07F22900075AD82AC831205EF8DB3
:10130B00828C83F0A309E970010ADFEC9000B6E050
:0A131B00FBA3E0FAA3E0F902008B47
:10002600E5082472F582E43400F583E005082290A1
:10003600006F300703900072E475F00112080102A8
:1000460005EF2000E97F2ED2008018EF540F249090
:10005600D43440D4FF30040BEF24BFB41A0050034D
:100066002461FFE50960021509050CE50C7002051F
:100076000B30070E90006FE475F001120801EF02D5
:1000860007EF0214C77403D2078003E4C207F5081A
:1000960090006F120818E4F509F50BF50CE50960F8
:1000A600077F2012006980F5750AFFC201C200C2EF
:1000B60002C203C205C206C208120035FF700D3027
:1000C60007057F0012007AAF0CAE0B22B4255FC283
:1000D600D5C204120035FF24D0B40A00501A75F0B8
:1000E6000A780930D50508B6FF0106C6A426F6200B
:1000F600D5047002D20380D924CFB41A00EF50047D
:10010600C2E5D20402027BD20180C6D20080C0D2F0
:100116000280BCD2D580BAD20580B47F2012006995
:100126002002077401B5090040F1120026FF1200F3
:10013600690200A3D208D2068095120026FB12009F
:1001460026FA120026F94A4B7006794C7A037BFF91
:1001560020022EE509602A7E008E82758300120633
:100166000860060EEE650A70F0C2D5EBC0E0EAC084
:10017600E0E9C0E0EE1202C2D0E0F9D0E0FAD0E049
:10018600FB1205EFFF60AAEBC0E0EAC0E0E9C0E0C1
:10019600120069D0E02401F9D0E03400FAD0E0FB87
:1001A600E50A0460DCD50AD980877BFF7A0279BE2E
:1001B600D202809C791080027908C206C2088008A3
:1001C600D2D5790A8004790AC2D5E50A047002F507
:1001D6000AE4FAFDFEFF120026FC7B08200113123A
:1001E6000026FD7B1030000A120026FE120026FFB4
:1001F6007B20EC3382D592D55013C3E43000069FA2
:10020600FFE49EFEE42001039DFDE49CFCE4CBF8A4
:10021600C201EC700CCFCECDCCE824F8F870F38098
:1002260017C3EF33FFEE33FEED33FDEC33FCEB3358
:10023600FB994002FB0FD8E9EB300105F8D0E0C48A
:1002460048B201C0E00AEC4D4E4F78207B0070C2E8
:10025600EAB50A0040BCC0E01202C4D0F0D0E020EB
:100266000104C4C0E0C4B201C0F0120052D0F0D5FF
:10027600F0EB0200A312082101405301BA58011104
:100286004C010D4201BE4F01C64401C64901264339
:0802960001CC5501B04601B096
:10029E004501B047036C5001152D01192E013C2B61
:1002AE00011D23013A2003552A00D54800000134D0
:1002BE003F3F3F00790AA2D5200314300509B9103B
:1002CE00020404B9080104A2D5200602500104203C
:1002DE0002689202B509005034C0E07F2030031945
:1002EE007F30A20272067205500F12031BC202C2A9
:1002FE0006C205C2087F30800F300503E9C0E01248
:10030E000069300503D0E0F9D0E0B509CC3005170F
:10031E007F30B9100C1200697F583004077F788047
:10032E0003B908031200693002057F2D0200697FB0
:10033E00202008F87F2B2006F322920280CF286E11
:10034E00756C6C2900D2011200263001F8C20178BA
:10035E000930D50108F60200D52D50434958120038
:10036E00262403B405004001E49003679312005A5B
:0D037E00743A12005AD2037509040201BA44
:1007EF00BB010689828A83F0225002F722BBFE01E9
:0207FF00F322E3
:10080100F8E0FBA3A3E0F925F0F0E5821582700280
:070811001583E0FA38F02224
:09081800EBF0A3EAF0A3E9F022E1
:10082100D083D082F8E4937012740193700DA3A366
:1008310093F8740193F5828883E47374029368607A
:06084100EFA3A3A380DF7A
:1014C700EFB40A07740D1214D2740A309811A89950
:1014D700B8130CC2983098FDA899C298B811F63085
:0714E70099FDC299F599225D
:00000001FF
